:1020000000800020D9500000C1500000C1500000E5
:1020100000000000000000000000000000000000C0
:10202000000000000000000000000000C15000009F
:102030000000000000000000C15000002D51000011
:10204000C1500000C1500000C1500000C15000004C
:10205000C1500000C1500000C1500000C550000038
:10206000C15000000D500000C1500000C1500000E0
:10207000C1500000C15000001D500000C1500000C0
:10208000C1500000C1500000C1500000C15000000C
:1020900000000000C1500000C1500000C15000000D
:1020A000C1500000C1500000C1500000C1500000EC
:1020B0000000000010B5064C2378002B07D1054B1B
:1020C000002B02D0044800E000BF0123237010BDA4
:1020D000D00000200000000054AC0000044B10B5FC
:1020E000002B03D00349044800E000BF10BDC046E8
:1020F00000000000D400002054AC000070B50021A6
:102100000500002402F07EF8A0420BDB210028002D
:1021100002F078F80334A04204DC0021280002F029
:1021200071F8C4B20121280002F06CF814235C435A
:102130001C4BFF211C19FF2802DCC143C9170140B9
:10214000C9B2200002F04EFD0221280002F05AF828
:10215000FF281BDDFF20C1B2200002F03DFD03215E
:10216000280002F04FF8FF2814DDFF20C1B2200044
:1021700002F026FD0421280002F044F8FF280DDDBE
:10218000FF20C1B2200002F021FD70BDC343DB1768
:102190001840E0E7C343DB171840E7E7C343DB170A
:1021A0001840EEE74401002070B50021040000252E
:1021B00002F028F8A8420BDB2900200002F022F8E8
:1021C0000335A84204DC0021200002F01BF8C5B250
:1021D0000121200002F026F814235D43011C0B4866
:1021E0004519280002F068FC0221200002F01AF8CC
:1021F000011C280002F06AFC0321200002F012F802
:10220000011C280002F044FC70BDC04644010020BF
:1022100070B500210400002501F0F4FFA8420BDB9B
:102220002900200001F0EEFF0335A84204DC002164
:10223000200001F0E7FFC5B20121200001F0F2FF0C
:10224000041C142045430D4800214519201C01267B
:1022500005F044FC002800D1061C0021201CF6B229
:1022600005F03CFC002802D180231B06E418310055
:102270002800221C02F0B6FB70BDC04644010020BD
:1022800070B500210500002401F0BCFFA0420BDB6B
:102290002100280001F0B6FF0334A04204DC002135
:1022A000280001F0AFFFC4B22800012101F0AAFF0D
:1022B0001423634301000248C01802F0B5FB70BD4F
:1022C0004401002010B50021040001F09BFF002113
:1022D00088420ADB200001F095FF0321884204DCDC
:1022E0000021200001F08EFFC1B2142041430248BA
:1022F000401802F09FFB10BD4401002010B50021E2
:10230000040001F07FFF002188420ADB200001F079
:1023100079FF0321884204DC0021200001F072FFD4
:10232000C1B2142041430248401802F088FB10BD9E
:1023300044010020F0B5012185B00D2003F0BCF868
:102340000121042003F0B8F89621614F890138007B
:1023500004F088F85F49380003F048FA01211020A2
:1023600003F0AAF801210E2003F0A6F801210B20AA
:1023700003F0A2F80021062003F09EF801210C20B2
:1023800003F09AF80121102003F0E2F80021102058
:1023900003F0DEF80121102003F0DAF801210E200D
:1023A00003F0D6F84C4E0025300002F087FD802166
:1023B000300002F0EFFD03210B2003F00DF90321A3
:1023C0000C2003F009F90321062003F005F901218F
:1023D000300002F0CBFD14236B43404C3100E41875
:1023E000200002F0D7FA0721200002F041FB3C490F
:1023F000200002F04DFB3B49200002F053FB39491D
:10240000200002F059FB3749200002F05FFBA621B3
:10241000200002F085FB0821200002F061FB002172
:10242000200002F08DFB80220021D200200002F06B
:102430005FFB0021200002F093FB1021200002F03E
:102440009FFB0021200002F0ABFB4021200002F0A6
:10245000C3FB4021200002F0B3FB4021200002F02A
:10246000B5FB2021200002F0BDFB8F2217212000A8
:1024700002F092FA012002F09DFE200002F0E4FA40
:1024800001210D2003F064F8642002F093FE002186
:102490000D2003F05DF80135642002F08BFE042D61
:1024A00099D11149380003F097F9104B02A9029312
:1024B0000F4B10485B680193039300F017FC0E4B21
:1024C0000E48196889B200F08AFC05B0F0BDC0461C
:1024D000FC06002096A400002801002044010020F2
:1024E00000401C460000FA44C2A4000058AA0000A4
:1024F000200100200400002000000020EC0000204B
:1025000070B58CB005AC0E000100200001F083FF17
:10251000182003F023F90500310001F04FFD2B785E
:10252000032B1ED103232373154B164D0393164B18
:1025300003A95B68280001930493144B1A6892B2B4
:1025400000F0A4FC2900200001F08BFE280000F020
:10255000A6FC200001F072FF200001F08FFF0CB0FC
:1025600070BDA3686068591C890007F0ABFA0028A9
:10257000D8D0A36860609A0001331550A360D3E7F8
:1025800058AA0000EC000020180100200C000020D8
:1025900007B5084B08489969084B5960090EFFF7C1
:1025A000AFFF0D2003F000F8414241410D2002F041
:1025B000CFFF07BDEC0000208BA400001801002015
:1025C00010B50021040001F01DFE002188420ADB45
:1025D000200001F017FE0321884204DC00212000C6
:1025E00001F010FEC1B2142041430448401802F02B
:1025F000EDF901000248FFF783FF10BD4401002000
:102600007EA4000010B50021040001F0FBFD0021B4
:1026100088420ADB200001F0F5FD0321884204DC3A
:102620000021200001F0EEFDC1B214204143044816
:10263000401802F009FA01000248FFF761FF10BDDF
:102640004401002083A4000030B589B001A801F046
:10265000EDFE284D280000F095FC041E44DD013CF1
:1026600007D3280000F02FFCC1B201A802F079F9CD
:10267000F5E701A801F0B0FD041E35D103001E4AA4
:102680001E4901A801F081FD23001D4A1D4901A832
:1026900001F07BFD23001C4A1C4901A801F075FDD7
:1026A00023001B4A1B4901A801F06FFD23001A4AB1
:1026B0001A4901A801F069FD2300194A194901A826
:1026C00001F063FD2300184A184901A801F05DFDDF
:1026D0002300174A174901A801F057FD2300164AA5
:1026E000164901A801F051FD01A801F0C7FE09B08B
:1026F00030BDC046EC0000200526000028A40000E4
:102700001122000033A40000A921000038A4000019
:10271000C125000047A40000812200004FA4000052
:10272000FD20000057A40000C522000060A40000A6
:10273000FD2200006AA400009125000073A400009F
:1027400010B5FFF781FF10BDF0B5002485B0230060
:10275000220021000094254802F0C8FF83232200B4
:1027600000930A212300224802F0C0FF0A21220020
:10277000009123001F4802F0B9FF1F4DFA232800E3
:102780009B00AB601D4B6C60143003272B6002F084
:10279000A5FF082302260135EB77DB19009302968B
:1027A0000197013306221649164802F035FB164DF3
:1027B000390010230E22280002F0DAF82800310038
:1027C00010230E22143002F0D3F8280010230E221A
:1027D0000121283002F0CCF8280010230E2221001D
:1027E0003C3002F0C5F805B0F0BDC0461001002035
:1027F0002001002018010020EC000020E4A40000CB
:10280000E8060020280100204401002007B500212F
:10281000034800910B000A0002F068FF07BDC046A4
:10282000940100204B68436000230381704770B51A
:1028300000240A2523000878002816D00600303E20
:102840000131092E07D86B43303B1B189BB2FF2B7D
:10285000F1D900200DE02E28FBD1032CF9D0601C0B
:1028600014192371C4B20023E5E7032C01D1012020
:10287000D37170BD07B50021034800910B000A0019
:1028800002F034FF07BDC0469C010020F0B50400F3
:1028900085B025000E0002F057FC21000C35208188
:1028A00008310222280000F000FB02AB9C1D01232E
:1028B000022221002800238000F0F7FA8023022260
:1028C0005B0021002800238000F0EFFA00230222A1
:1028D00021002800238000F0E8FA022221002800CD
:1028E00000F0E3FA02222100280000F0DEFA3700AF
:1028F0003378002B1DD03E003378721C0192002BE0
:1029000001D02E2B13D1F31B0193002B0DDD02AB55
:10291000591D6B461B79012228000B7000F0C5FA87
:10292000F21B3900280000F0C0FA771CE0E7019E96
:10293000E2E7802602AA511D280001220B707600D2
:1029400000F0B3FA210002222800268000F0ADFA40
:10295000022221002800268000F0A7FA012005B0FD
:10296000F0BD0000F0B589B007000E00019202F042
:10297000EBFB05003C000C34200000F003FB0028BA
:1029800009DC02F0E1FB401BB04200D9BFE032207D
:1029900002F010FCEEE77B6A7A68934200D0B8E060
:1029A0003B8D352B00D0B4E0200000F001FA0B285D
:1029B00000DCB0E005AE0C223100200000F09AFAF5
:1029C00072881302120A13431BB202AA9DB2D58069
:1029D00039893288914201D1002B05DB200000F0BB
:1029E000F3F94E4809B0F0BD4D4B1D4004D0200016
:1029F00000F0EAF94B48F5E7F3881A021B0A134383
:102A00009BB20093002B04D1200000F0DDF9464872
:102A1000E8E7B3885BBA9BB2AB4218D90A2702AB8E
:102A2000FF1801223900200000F064FA3A78002AE9
:102A300003D00021200000F05DFA39780029EDD1A3
:102A400004222000013500F055FAADB2E1E700277D
:102A500002AB5D1D01222900200000F04BFA2A780C
:102A60003F231100994335D1002A02D0200000F005
:102A700041FA2D78002DEBD10A26022204A920006C
:102A800000F038FA02ABF61802223100200000F004
:102A900031FA29000422200000F02CFA02AB9D1D1F
:102AA00002222900200000F025FA02AB1B892A88A7
:102AB0005BBA52BA9BB292B2012B1AD1368876BA5F
:102AC000B6B2012E15D1042A0CD0200000F07CF9FA
:102AD000164887E701220021200000F00BFA0023AE
:102AE0002B70C6E701992000043100F003FA300092
:102AF00078E70021200000F0FDF90137009BBFB20C
:102B0000BB42A5D1200000F05FF909486AE70948F7
:102B100068E7094866E7094864E7C046FCFF00002B
:102B20000F020000FBFF0000FAFF0000F7FF0000AB
:102B3000F6FF0000FFFF0000FEFF0000FDFF0000A9
:102B4000F0B585B004000F0000920193FFF76FFE0F
:102B5000051E34D11C4B62685B689A4231D002F08A
:102B6000F3FA26000F21802301400C36DB00C91840
:102B7000300000F034F901281ED1144B35220293A5
:102B8000636802A93000039300F080F9002810D098
:102B900039002000FFF77AFE00280AD0300000F04C
:102BA0007EF9002805D0009A01992000FFF7DAFE8F
:102BB0000500300000F009F9280005B0F0BD01253E
:102BC000FAE702256D42F7E79C01002058AA0000B1
:102BD00010B501000422012000F0DCFD10BD10B58D
:102BE00001000422052000F0D5FD10BD10B5010044
:102BF0000622092000F0CEFD10BD10B50100042210
:102C00000F2000F0C7FD10BDF0B585B007000C0027
:102C10001600019300F08AFF00281DD0002302AAAD
:102C20000E4D53711371039A0D49280002F06EF98D
:102C30003800FFF7DBFF201DFFF7DFFF01980430AE
:102C4000FFF7C6FF0A9B181DFFF7C9FF280002F017
:102C500079F97268034B5A6005B0F0BD400200205C
:102C600000127A00AC010020F0B51D0000230F0017
:102C7000160004008FB00093FF331A00190004A857
:102C800002F034FD7A680B4B079272680693099242
:102C90006A6808930A930C93059B03920B920CAA03
:102CA0000D9300920AAB08AA06A92000FFF7ACFF1B
:102CB0000FB0F0BD58AA000000B50B4B8BB00493C9
:102CC00006930893012352684968079202AA039168
:102CD000D371039B05910193099306AA08AB04A93C
:102CE000FFF7C2FF0BB000BD58AA000000B5094BAA
:102CF00089B00493069301234A6804A903920592BC
:102D000002AAD371039B06AA01930793FFF7D4FF8E
:102D100009B000BD58AA000007B500210448009181
:102D20000B000A0002F0E2FC024802F0D7FC07BDEB
:102D3000A4010020AC01002070B50C001100054A70
:102D4000000215781A002D026419201880B200F0D4
:102D5000D3FD70BD3002002007B50021034800916B
:102D60000B000A0002F0C2FC07BDC046B4010020FF
:102D70000020704707B50021034800910B000A00AE
:102D800002F0B4FC07BDC046BC01002010B50368CA
:102D90009B6B984710BD0000024B03608B6943603A
:102DA0007047C04658AA0000808B7047008A704761
:102DB000408C704713B56B460268D971073354686D
:102DC00019000122A04716BD704710B5441CE07FD2
:102DD000072803D800F028FB0823E37710BD70B55F
:102DE000461C0400F07F0D00072801D800F01CFBF2
:102DF0002900022000F0EAF90023F077072802D822
:102E0000638425820133180070BD0000F0B593B0D3
:102E1000040006A80F00160002F060FC00230A93CD
:102E2000FA239B000B93154B0EA80833099302F06D
:102E300055FC082211AB1A7002A802F04FFC104B8F
:102E4000104D5B6804A906A8019305930495FFF74C
:102E5000E9FC0D4B02AA390006A8FFF771FE012814
:102E600009D1039A236801929B6A04A905920495EB
:102E700032002000984713B0F0BDC046DCA400002B
:102E8000AC01002058AA000088130000002310B5F0
:102E9000C38301300431C07F00F0EAFB10BD10B5E0
:102EA0000130C07F00F012FC10BD70B50D000400B1
:102EB00093B2421CC18BD07F2A0000F0B1FBE38BA0
:102EC000C318E38370BD37B5438C0400002B02D1D7
:102ED000012040423EBD6B46DD1D431CD87F0122D0
:102EE000290000F0B9FA0028F2DD638C2878013B54
:102EF0006384EFE710B5438C0400002B02D101205E
:102F0000404210BD0130C07F934208D81AB200F091
:102F1000A3FA0028F3DD638C1B1A6384F1E712B275
:102F2000F5E710B5431CDB7F072B06D8428C002A3F
:102F300003D0180000F04CFB10BD01204042FBE71D
:102F4000F0B5461C0400F07F85B00F00150007287F
:102F500001D800F069FA0A4B2A0002937B6802A9A3
:102F600082200193039300F0B9F90023F07707283A
:102F700002D8638425820133180005B0F0BDC04635
:102F800058AA000073B505006C8C002C06D02B6885
:102F900022009B6B002128009847F5E76E1CF07F0C
:102FA00000F0EEFA03002000002B19D0F07F082279
:102FB000694600F051FA002812DD280069461430F5
:102FC00002F0A2FB6B461A795B7912029B18AB8365
:102FD0006B466A469B79D0791B02C01880B2688420
:102FE00076BD000007B50021034800910B000A00E0
:102FF00002F07CFB07BDC046D401002013B56B4630
:10300000DC1D064B00021B7801221B02C9180818A0
:1030100080B2210000F070FC207816BD3002002044
:1030200007B5074B00021B781B02C9186B4608182E
:10303000D91D0A7080B2012200F0ACFBC0B20EBDF7
:103040003002002070B50C001100054A000215780E
:103050001A002D026419201880B200F09BFB70BD8D
:1030600030020020F0B50C00050085B003AE0092E0
:103070001F00320002232421FFF75EFE32787378AE
:1030800012021343E418A3B25C0501931D4B640DB7
:103090001B782800332B2DD10830C00280B22018B5
:1030A00080B2372B2AD08021E31909018B4225DD1C
:1030B0000C1BA4B22200009900F06CFB114B2800FD
:1030C0001B78332B18D10830009BC0023A1B80B20A
:1030D00092B2191900F05EFB019B3200DF19BFB2FA
:1030E0003B1233702421022328007770FFF7AAFFD8
:1030F00005B0F0BD1030D0E71030E5E73A00009998
:10310000E8E7C0463802002010B50321FFF776FF3C
:1031100010BD07B50B1201AA1370517002230421D0
:10312000FFF790FF07BD10B50A0004230C21FFF73D
:1031300089FF10BD07B50B1201AA1370517002234D
:103140001021FFF77FFF07BD13B501AC022322005A
:103150002021FFF7F1FD237860781B02184316BD8C
:1031600070B50400FFF7F0FF05002000FFF7ECFF4B
:103170008542F9D1024BE4001C192800A58070BDDE
:10318000E401002013B501AC022322002621FFF741
:10319000D3FD237860781B02184316BD13B501AC2C
:1031A000022322002821FFF7C7FD237860781B0245
:1031B000184316BD044B1B78332B03D10C30C002CF
:1031C00080B270471830FAE738020020F0B53B4B68
:1031D00085B01B78019000910824002B31D0270086
:1031E000332B00D1043F002502AB354E35495D71CC
:1031F0001D71039A3000029101F088FEECB22000AC
:10320000FFF782FF02AB5855002821D00135EBB201
:103210009F42F3D8B42100230120890502AAD25C81
:10322000DCB21D2A05D80D00D5402A0005009543C3
:103230000AD00133DAB2BA42F0D3300001F082FE94
:103240000824200005B0F0BD1021200000F0EAFCA9
:1032500000211D4A63009952FA231B01013BFDD155
:10326000019A2000FFF7DCFE0221FF222000FFF779
:10327000D7FE009B191E08D1144A15491388013343
:103280009BB28B4218D91380118800272000FFF7CA
:1032900040FF0121200000F0C5FC0E4DE3005F530C
:1032A0002000FFF77BFFE300ED186880AF71AF806F
:1032B000300001F047FEC4E7074BE4E73802002086
:1032C0004002002000127A00C401002010000020FB
:1032D000FFBF0000E401002000C0FFFFF0B54A4B33
:1032E00089B01B7803900E0002920824002B31D085
:1032F0000194332B01D12F3B0193002506AF4349A5
:103300007D713D717A684248069101F0FFFDECB293
:103310002000FFF7F9FE7855002822D00135019AE8
:10332000EBB29A42F3D8B421002301208905FA5C5C
:10333000DCB21D2A05D80D00D5402A0005009543B2
:103340000BD00133019CDAB2A242F0D3304801F035
:10335000F9FD0824200009B0F0BD1021200000F084
:1033600061FC00212B4A63009952FA231B01013BA7
:10337000FDD1039A2000FFF753FE0221FF22200017
:10338000FFF74EFE029B191E08D1234A23491388DA
:1033900001339BB28B4234D9138011880125200060
:1033A000FFF7B7FE04AB1D805E2304AA93707F2253
:1033B0007379311D134004AAD370B37920001371BF
:1033C000F37900265371FFF7AEFE02992000FFF754
:1033D000B1FE062304AA19002000FFF733FE2900DE
:1033E000200000F01FFC0E4DE7007E532000FFF789
:1033F000D5FEED196880AE71AE80054801F0A2FDE2
:10340000A8E7084BC8E7C0463802002000127A003F
:1034100040020020C401002010000020FFBF000077
:10342000E401002000C0FFFF37B500236A46050015
:10343000074C53711371019A2000064901F066FD93
:103440002800102100F0EEFB200001F07BFD37BDCD
:103450004002002000127A00454BF0B5C600F45A35
:10346000002385B0170002AA0091537141491371DE
:103470000500039A4048029101F048FDA7420EDD85
:103480002800FFF77FFE04002800FFF77BFEA04224
:10349000F9D1374B9B199879354B241A9C53002C42
:1034A00010D12800FFF730FE142805D0002803D0E3
:1034B0001C38441EA04144422F4801F043FD200027
:1034C00005B0F0BDBC4200DD3C00294BA7B29E19FF
:1034D00073880193009B002B21D0019B28005E057F
:1034E000FFF768FE254B760D1B78301880B2372B1E
:1034F0003AD08022BB191201934235DD961BB6B239
:103500003200009900F0F8F9009B28009B19009305
:10351000FFF750FEBA1B92B2009900F0EDF9019B43
:10352000134EE900FB1870189BB243808A5BD21BD4
:1035300092B28A538679BF19BFB2F92F01D8002AF7
:1035400014D10B4A2800511800228A7102A91A12BC
:103550000A704B700A0002232821FFF773FD4021F7
:10356000280000F05FFBA7E73A00D5E78771A3E7E3
:10357000E401002000127A004002002038020020FE
:10358000F7B5104DC7000600785B002819D16B46CF
:103590000D4958711871019A0C48009101F0B6FC60
:1035A0003000FFF7EFFD04003000FFF7EBFDA04215
:1035B000F9D1064801F0C6FCEB199879201A80B2BF
:1035C000E853FEBDE401002000127A004002002012
:1035D00037B500236A4605000E4C0F49537113712D
:1035E000019A2000009101F091FC2800FFF7E2FD14
:1035F0000A4BED005D196B8801225B055B0DC0185D
:10360000694680B200F078F9200001F09BFC6B461F
:1036100018783EBD4002002000127A00E40100202C
:10362000F0B51C000023060085B00F4D170002AA5C
:10363000537113710191039A0C49280001F066FC43
:103640003000FFF78DFD031CA04200D9231C9CB263
:1036500023003A0001993000FFF704FD280001F033
:1036600071FC200005B0F0BD4002002000127A007D
:10367000F7B50B7805000C001600002B08D14B782D
:10368000002B05D18878002802D1CB78002B17D0E9
:103690000020864214D06B460A4F58711871019A67
:1036A0000949380001F032FC21002800FFF73BFDFA
:1036B00031002800FFF73EFD380001F043FC0120F7
:1036C000FEBDC0464002002000127A00F7B500237C
:1036D0006A4606001D4D537113711D492800019A59
:1036E00001F014FC2021300000F09CFA022130008F
:1036F000FFF784FC102404401ED102213000FFF7A4
:103700007DFC0827074009D0182202213000FFF76E
:1037100087FC280001F016FC2000FEBD280001F007
:1037200011FC01F06BFD6B465F711F710849019A36
:10373000280001F0EBFBD9E7102202213000FFF74F
:103740006FFC280001F0FEFB0120E6E740020020AC
:1037500000127A0007B50021034800910B000A000F
:1037600001F0C4FF07BDC046DC010020024B034A44
:103770001B6812685A6170472C0200203402002036
:10378000024B034A1B6812689A6170472C020020A2
:1037900034020020F0B54D4B85B01B7804000D00BD
:1037A0001600332B1ED183189BB20193019BA342B9
:1037B00077D0FFF7DBFF464FF021380001F0F2FB36
:1037C000210A380001F0EEFBE1B2380001F0EAFB1B
:1037D00001342978380001F0E5FBA4B2FFF7D0FFEF
:1037E0000135E3E7C7B2342B1CD1FFF7BFFF24122A
:1037F00002AB1C705F708023320A5B42134302AA43
:1038000093701300324CD67019000422200001F08E
:10381000CEFBAF19AF4242D02978200001F0C2FBA5
:103820000135F7E7FFF7A2FFFF2C06D8002302AA15
:1038300013700423577093700DE023B2002B15DB37
:10384000002302AA13701F23E4109C4323000C24BE
:103850001C4357709470052E26D80023B34219DA02
:1038600002A95A18E95C0133D170F7E71F21A311AF
:103870008B431849220A5BB28C4206D802A90A700F
:1038800014224F7013430A00D5E702A90A704F7043
:103890001C22F7E7F21C02A90D4801F088FBFFF794
:1038A0006FFF300005B0F0BD094F032202A93800B8
:1038B000741E01F07CFBA4B26B1CE418297838005C
:1038C000013501F06FFBA542F8D1E8E7380200208E
:1038D00040020020FFBF000007B56B46D9710733D7
:1038E00001221900FFF756FFC0B20EBD10B501004E
:1038F0000020FFF7F1FF10BDF0B53C4B85B01B7801
:1039000004000E001700332B1FD183189BB20193C4
:10391000019BA3423AD0FFF729FF354D0F21280024
:1039200001F040FB210A280001F03CFBE1B2280035
:1039300001F038FB0021280001F034FB0134307025
:10394000A4B2FFF71DFF0136E2E7C2B2019203AD58
:10395000342B1ED1FFF70AFF6B4604221B79241279
:103960006B707B045B0E2C70AB70EF7029002048ED
:1039700001F01DFB3A000021300005F03EFD3A0049
:1039800031001B4801F013FBFFF7FAFE380005B0C9
:10399000F0BDFFF7EBFEFF2C06D86A460023127934
:1039A0002B706A70AB700EE023B2002B0DDB00238E
:1039B0002B706B461B79E4106B701F239C43230014
:1039C00008241C43AC700322D0E7220A1F212A706E
:1039D0006A46A3118B43127906496A705BB21022C2
:1039E0008C4200D918221343DCE7C046380200207D
:1039F00040020020FFBF000013B56B46DC1D012212
:103A00002100FFF779FF207816BD10B50020FFF7E1
:103A1000F3FF10BD10B58020FFF768FF1424FFF7F7
:103A2000F4FF002808D0013C0120A4B201F0C2FB41
:103A3000002CF4D1200010BD0120FCE73322104BF4
:103A400010B51A70FFF7E6FF002801D1002010BD65
:103A50001020FFF74BFFFFF7D8FF1028F6D10230F8
:103A6000FFF744FFFFF7D1FF1228EFD10020FFF747
:103A70003DFFFFF7CAFF43425841C0B2E7E7C046E7
:103A8000380200203422134B10B51A70FFF7C2FF22
:103A9000002801D1002010BD0820FFF727FFFFF705
:103AA000B4FF0828F6D10830FFF720FFFFF7ADFF7D
:103AB0001028EFD10020FFF719FFFFF7A6FF00281D
:103AC000E8D11F30FFF798FF033843425841C0B296
:103AD000E1E7C046380200203722134B10B51A70B8
:103AE000FFF798FF002801D1002010BD0820FFF744
:103AF000FDFEFFF78AFF0828F6D10830FFF7F6FE33
:103B0000FFF783FF1028EFD10020FFF7EFFEFFF74C
:103B10007CFF0028E8D13930FFF76EFF04384342BC
:103B20005841C0B2E1E7C04638020020F7B5334E35
:103B300001273478002C5FD18C20800001F03AFB03
:103B40002F4D280001F0BAF918212E4B2E4A187873
:103B50002E4B4143CB56DB019B182D4A13602B4B58
:103B60005A1853683A009A402A4B39001A6001F0FB
:103B7000A3FCFFF705FE6B465C711C712649019A98
:103B8000280001F0C3F9FFF77DFF002817D040227D
:103B9000224BFF191A703A001E212000FFF740FA4D
:103BA000200001343A001F21E4B2FFF739FA082C53
:103BB000F1D10127280001F0C5F937701CE0FFF7AB
:103BC0008BFF002803D01022144B1A70F1E7FFF787
:103BD00035FF071E0BD00422104B55211B201A70F5
:103BE000FFF77AFE55211A20FFF776FEE1E70C4B2E
:103BF0001870280001F0A6F93800FEBD3902002037
:103C000040020020120000200044004100A60000F5
:103C10002C0200203402002000127A003002002022
:103C20003802002010B50A0004000121FFF7F8F95E
:103C30002402054B187800020130201880B2FFF7EB
:103C4000DBFE0028F5D110BD3002002007B50021B1
:103C5000034800910B000A0001F048FD07BDC04673
:103C60002402002070B543780122212B09D083184B
:103C7000100042401C785D2C01D0002C04D11000B3
:103C800070BD831C0020F4E75E780D782D2E06D1E0
:103C9000AC4202D89C78AC42F2D20333EAE7AC42A1
:103CA000EED00133E6E770B50D00013004787D2CCD
:103CB00003D0002C16D02F2C01D1002412E00600D6
:103CC00006E0002B07D02F2B05D02C2B03D001367C
:103CD00033787D2BF5D1341A2200290005F027FF17
:103CE000002801D1200070BD701CDFE710B50278FC
:103CF00003005D2A16D009D801203F2A18D05B2A7C
:103D000013D00878801A4342584111E07B2A04D02E
:103D10007D2AF6D11A787B2A0BD11800FFF7C3FF52
:103D200006E0013B1A785B2AFBD11800FFF79AFFE7
:103D300010BD013BEEE7F8B504000E0020273378F4
:103D400025782F2B01D0002B0ED101202F2D0AD04A
:103D5000002D08D000202A2D05D1637801302F2BAB
:103D600001D058425841F8BD2A2D07D1601C3100BE
:103D7000FFF7E1FF002810D00120F4E73100200018
:103D8000FFF7B4FF0028EED0BD435B2D04D12378AC
:103D9000621CBB435D2B02D101340136CFE7140016
:103DA000F5E7F0B589B0029003910592069305F00E
:103DB000A5FE00280CD1029805F0B2FE059B186004
:103DC000039805F0ADFE069B1860032009B0F0BD16
:103DD0000023059A039F1360069A029C13603B78A8
:103DE000002B02D02578002D10D1029B059AE31AF2
:103DF0001360039B069AFB1A1360387843425841BC
:103E00002378002BE2D102331843DFE72A2D00D0BC
:103E100090E0380000E0013003782F2B1BD0002BFE
:103E2000F9D125002A782F2A01D0002A0DD1421E6F
:103E3000013D0192012B25D0022B49D039002000F1
:103E4000FFF779FF002820D1C0E72A3A51424A41C2
:103E500001359B18E6E725000023E3E701992800D8
:103E6000FFF744FF0028B1D020239E435D2E05D1EB
:103E700020212B786A1E8B435B2B12D1019B013DC5
:103E8000013B01932E782A2EE8D123782F2B01D0E5
:103E9000002B4DD13B782F2BA1D0002B9FD0013789
:103EA000F8E71500E4E701992800FFF71FFF002855
:103EB00000D18BE720239E435D2E05D120212B7856
:103EC0006A1E8B435B2B0ED1019B013D013B01938D
:103ED0002E782A2EE7D1019B01330193019B9F424B
:103EE00003D3002072E71500E8E7019B6E1E013B3B
:103EF00001930493337807932A2B02D1B442EDD176
:103F0000C3E704993000FFF7F1FE0028F6D0202225
:103F1000079B93435D2B05D120213378721E8B4381
:103F20005B2B03D1049B013E013BE2E71600F3E764
:103F30000134AAE72A2B0FD123782F2B01D0002B95
:103F400008D13B782F2B00D149E7002B00D146E761
:103F50000137F6E70134EFE739002000FFF7C6FE2E
:103F6000002800D132E75B2D05D1237801345D2B89
:103F7000FBD1013733E77B2D05D1237801347D2B2D
:103F8000FBD13F182BE70134F3E7002370B5037032
:103F900073338360040008000D0005F0C1FD01309B
:103FA000606005F00DFA061E03D103232370200084
:103FB00070BD290005F0ACFD2661F8E70023037011
:103FC00069338360653B4360016170470023037080
:103FD00066338360623B43600161704713B56B4693
:103FE0005A6000220270743282606C3A42600200B1
:103FF0000091103212CB12C216BD0021017008319F
:1040000041605C318160026143617047F0B585B009
:10401000622301910021150004008360017003AB4D
:10402000101D120E1A702A02120E5A702A04120E55
:104030009A70DD706060039F88420FDD05F0C0F963
:10404000061E04D103232370200005B0F0BD80C0FC
:104050002A00019905F0C8F92661F5E72161F3E727
:10406000436810B50400002B08DD8368732B03D16F
:10407000206905F0AFF901E0622BF9D0200010BDF6
:10408000022303700023816043607047826800232D
:10409000692A00D10369180070478368662B01D133
:1040A000006970470020FCE782B0C27801AB1A704B
:1040B00082785A7042789A700278DA70019802B069
:1040C000704783688B4203DD43688900C858704796
:1040D000042303730020FAE7F7B501938368040013
:1040E0000D0017008B421BDDFFF7EBFF061E04D00F
:1040F000FFF7B6FF300001F035FB182001F02EFB72
:104100000600019A3900FFF781FF3378032B02D1B3
:104110000323237302E06368AD00EE502000FEBD70
:104120008B4219D1182001F019FB0500019A3900C2
:10413000FFF76CFF2B78032BEAD0A3686068591C4B
:10414000890005F0BFFC0028E2D0A36860609A00F7
:1041500001331550A360E1E70423DAE737B50368BC
:1041600005001400981801AB6A46FFF71AFE009B81
:10417000032806D0002B06DD2A681219D25C2F2AEC
:1041800001D118003EBD0023FBE770B516001A00F0
:104190001C000500FFF7E2FF0023984203DD211811
:1041A0002800B0470123180070BD70B50E00040050
:1041B000006805F00FF9300005F0B2FC013005F0A1
:1041C000FFF8051E04D1032323732560200070BD72
:1041D000310005F09DFCF8E770B5047B0600631E16
:1041E0009C410025E4B2B368AB4209DD29003000F0
:1041F000FFF767FF037801355A1E93411C43F2E72E
:10420000200070BD70B50400FFF75BFF05002000C3
:10421000FFF7E2FF03000020834202D12800FFF7EE
:1042200035FF70BD70B50400FFF74BFF050020009F
:10423000FFF7D2FF002803D12800FFF72EFF70BD43
:104240000020FCE770B50400FFF73BFF05002000ED
:10425000FFF7C2FF0023984201D1AB68DBB2180020
:1042600070BDF0B587B005000C00FFF7B5FF002862
:1042700000D090E02E680327300005F051FC236841
:104280008743421C5B6831002000984723681B6805
:10429000002F04D000212000013F9847F6E72C2191
:1042A000200098473E00AB68B3420CDD2368310024
:1042B0001B6828000193FFF7C5FF019B0100200048
:1042C00098470136EFE703269E4300D10436013EAE
:1042D00015D3236800211B6820009847F7E7642B5B
:1042E0002DD10022173604A95342F35C53540132F6
:1042F000082AF9D123685B68200098470137AB682A
:10430000BB4248DD39002800FFF7DBFE836806006A
:10431000732B01D0622BE2D1236872685B6831692C
:10432000200098470323766876421E40002EE5D091
:10433000236800211B682000013E9847F6E7742B94
:1043400018D101000822103104A805F04DF804A886
:10435000FFF7AAFE236804225B6803A903902000EC
:10436000984705A8FFF7A0FE236803905B68042226
:1043700003A9C1E7542BC1D0462BBFD0C37C04A9ED
:104380000B70837C4B70437C8B70037CCB702368F9
:1043900042685B68B0E7280007B0F0BD70B5040064
:1043A000A3690D0000696169002B06DD4B1C636188
:1043B0004554A369013BA36170BD113105F082FB37
:1043C0002061002805D063695A1C6261C55410231E
:1043D000F1E703232373EFE710B510210400006910
:1043E00005F070FB2061002804D01023A361002396
:1043F000636110BD03232373F9E770B50025040042
:104400000560856005734560056145618561FFF75D
:10441000E3FF657370BD70B504000D00FFF7EDFF9D
:1044200029002000FFF7C1FE200070BD10B5040078
:10443000FFF7E3FF02232000237310BD70B50025B2
:1044400004000573A368AB420CDD29002000FFF7D0
:1044500038FE061E04D0FFF703FE300001F082F99B
:104460000135EFE7606804F0B5FF002320006360CA
:10447000A3606373FFF7B0FF200070BD10B50400A8
:10448000006804F0A7FF2000FFF7D8FF206904F0C0
:10449000A1FF200010BD10B501690400FFF785FEE3
:1044A000002320002373FFF797FF10BD70B50400B1
:1044B00018200E0001F052F905003100FFF7E0FD71
:1044C0002B78032B03D103232373200070BDA36833
:1044D0006068591C890005F0F5FA0028F3D0A3683C
:1044E00060609A0001331550A360EEE7F8B5836869
:1044F00004000D0016008B421ADDFFF7E2FD071ED7
:1045000004D0FFF7ADFD380001F02CF9182001F0C0
:1045100025F907003100FFF751FD3B78032B02D14D
:104520000323237302E06368AD00EF502000F8BD61
:104530008B4218D1182001F011F905003100FFF766
:104540003DFD2B78032BEBD0A3686068591C8900D4
:1045500005F0B8FA0028E3D0A36860609A00013340
:104560001550A360E2E70423DBE7F8B58368040095
:104570000D00161C8B421ADDFFF7A3FD071E04D0A9
:10458000FFF76EFD380001F0EDF8182001F0E6F8B5
:104590000700311CFFF71AFD3B78032B02D10323E0
:1045A000237302E06368AD00EF502000F8BD8B423A
:1045B00018D1182001F0D2F80500311CFFF706FDD4
:1045C0002B78032BEBD0A3686068591C890005F099
:1045D00079FA0028E3D0A36860609A00013315508F
:1045E000A360E2E70423DBE773B5009201938368DD
:1045F00004000D008B421BDDFFF763FD061E04D097
:10460000FFF72EFD300001F0ADF8182001F0A6F8FC
:10461000009A019B0600FFF7F0FC3378032B02D1D0
:104620000323237302E06368AD00EE50200076BDE3
:104630008B4219D1182001F091F8009A019B0500D6
:10464000FFF7DBFC2B78032BEAD0A3686068591CCA
:10465000890005F037FA0028E2D0A36860609A006C
:1046600001331550A360E1E70423DAE7F0B585B024
:104670006E467360836804000D0000928B4220DD5B
:10468000FFF71FFD071E04D0FFF7EAFC380001F01A
:1046900069F802AF3B00182006CE06C301F05EF8B1
:1046A000060002997A68FFF799FC3378032B02D150
:1046B0000323237302E06368AD00EE50200005B0D1
:1046C000F0BD8B421DD1009B18200293019B0393E8
:1046D00001F044F805000299039AFFF77FFC2B785C
:1046E000032BE5D0A3686068591C890005F0EAF93E
:1046F0000028DDD0A36860609A0001331550A360E4
:10470000DCE70423D5E7F8B5836804000D00160044
:104710008B421ADDFFF7D5FC071E04D0FFF7A0FC83
:10472000380001F01FF8182001F018F807003100D8
:10473000FFF72BFC3B78032B02D10323237302E00A
:104740006368AD00EF502000F8BD8B4218D11820EF
:1047500001F004F805003100FFF717FC2B78032B5C
:10476000EBD0A3686068591C890005F0ABF90028FC
:10477000E3D0A36860609A0001331550A360E2E7BC
:104780000423DBE7F0B504000E00002585B0A36824
:10479000AB422CDD29002000FFF793FC0378022BAD
:1047A00000D08AE080686238122820D802F0B2FF78
:1047B0006F1F341F211F1F0A1F1F1F1F1F1F1F1FB7
:1047C0001F624B006369042B11D1226902AB11787F
:1047D00050789678D2789870D9701A705E70029A74
:1047E00029002000FFF782FE2000FFF7F5FD05B04D
:1047F000F0BD6369042BFAD1226902AB11785078BD
:104800009678D2789870D9701A705E70029A2900E2
:104810002000FFF7AAFEE7E76669082EE7D12169C5
:104820003200684604F0E0FD02A9013E04D36A4666
:10483000925D8B1BDA71F8E7029A039B2900200036
:10484000FFF7D2FED0E76269082AD0D1216902A819
:1048500004F0CAFD02A8FFF727FC0600029003A897
:10486000FFF722FC32000300039029002000FFF72D
:10487000FDFEB9E7002EBAD1226929002000FFF71A
:1048800042FF2000FFF7A8FD06236373AFE76769C7
:10489000042FACDD26690422310002A804F0A4FD37
:1048A00002A8FFF701FC021D030097429FD1321DB1
:1048B00029002000FFF710FCE3E7013567E770B53A
:1048C00004000D00FFF76AFD607B062808D802F09F
:1048D00021FF040810181E2F340001232F2D06D0AD
:1048E00070BD002DFCD12000FFF7D5FD02236373BE
:1048F000F6E72C2DF4D1032320006373FFF76CFD42
:10490000EEE7002D11D029002000FFF7CFFD032393
:10491000A268934300D10433D31862699A42DFD16D
:104920002000FFF759FD0523E1E704236373EEE759
:1049300029002000FFF726FFD2E7A3685D1E002DA7
:10494000CEDB29002000FFF7BCFB0378002B06D14B
:10495000032243685B421340DFD10533C7E7013DC3
:10496000EDE710B50400FFF7AAFF200010BD00001E
:10497000436001230260054A5B4283601368C160A3
:1049800001331360024B03617047C0463C020020B4
:10499000400200200161704770B50D001600040050
:1049A00000F0A2F932002900200000F0F7F970BDF4
:1049B00070B50D0020210400294300F095F929006D
:1049C0000022200000F0EAF970BD000010B50121BE
:1049D000FFF7EEFF830201D5014B184310BDC0461F
:1049E0000000C0FF502370B50500141C194300F0EF
:1049F0007BF9211C280000F061F90A4B0400984261
:104A000000D91C0021022800090E00F06DF92104D4
:104A10002800090E00F068F92800E1B200F064F9FE
:104A200070BDC046FFFF0F0010B50A000121FFF75F
:104A3000B3FF10BD10B5B82100F056F910BD10B588
:104A4000A82100F051F910BD73B500250400D02154
:104A5000019500F049F92900200000F045F901AE68
:104A600070702900200000F03FF93070019876BD89
:104A700070B50D0016210400FFF79AFFC2B207209F
:104A8000054082432A4316212000FFF785FF70BDB1
:104A900010B5040000F0DCF8072102002000FFF749
:104AA0007BFF10BD10B5040000F0EAF815210200EC
:104AB0002000FFF771FF10BD10B5040000F098F85A
:104AC000052102002000FFF767FF10BD10B50400AC
:104AD00000F0A6F8062102002000FFF75DFF10BDE0
:104AE0001F2210B50A401321FFF756FF10BD00002A
:104AF00070B50C001A2116000500FFF759FF074A90
:104B00001A211040E02212021440E02252013240E9
:104B1000224302432800FFF73FFF70BDFF03FFFF62
:104B200070B50C0018210500FFF742FFFF230200BB
:104B30001C409A43280022431821FFF72DFF70BD27
:104B400070B50C001A210500FFF732FF8023020028
:104B50001C409A43280022431A21FFF71DFF70BD15
:104B600070B50C001A210500FFF722FF2023020078
:104B70001C409A43280022431A21FFF70DFF70BD05
:104B800070B50C001A210500FFF712FF1023020078
:104B90001C409A43280022431A21FFF7FDFE70BDF6
:104BA00070B50C001A210500FFF702FF0F23020069
:104BB0001C409A43280022431A21FFF7EDFE70BDE6
:104BC00010B50A000B21FFF7E7FE10BD10B50A0073
:104BD0000C21FFF7E1FE10BD10B50A000A21FFF716
:104BE000DBFE10BD10B50A000921FFF7D5FE10BD90
:104BF00010B5081C04F09EFA064B074A03F0AAFC05
:104C000004F0EAFA03F062F8044B984200D9180065
:104C100010BDC0469197C13F92239D81FF0F0000B8
:104C200010B5081C04F086FA064B074A03F092FC04
:104C300004F0D2FA03F04AF8044B984200D9180065
:104C400010BDC0469197C13F92239D81FF0F000088
:104C500010B5081C04F06EFA064B074A03F07AFC04
:104C600002F0C4FC02F04EFF044B984200D9180039
:104C700010BDC046F7C6B03F8DEDB5A0FF030000E4
:104C800010B5081C04F056FA084A094B03F062FC00
:104C9000084B002203F0D0FE04F09EFA03F016F851
:104CA000054B984200D9180010BDC0468DEDB5A047
:104CB000F7C6B03F0000E03FFF03000010B5081C3E
:104CC00004F038FA054B064A03F044FC02F01AFFE0
:104CD000044B984200D9180010BDC046C8C65040C9
:104CE000105839B4FFFF0F00F7B504006846174DA0
:104CF00000AF2A68D31DDB08DB00C31A9D466E4651
:104D0000981B824203DD002018700133F8E7E36846
:104D10002068F154002100F01BFC00237B71033359
:104D20003B717A6820690A4900F0F0F82A6831007E
:104D3000206900F03CF9206900F004F920680121A5
:104D400000F006FCBD46E368F05CFEBD3C020020BE
:104D500000093D00F7B5070001911600D50853077B
:104D600000D0013500242000A5420FDD030200938E
:104D7000094B0199EB181B1BDB00D9403800C9B265
:104D8000FFF7B2FF009B01341843EDE720239E1B81
:104D9000213BF3401840FEBDFFFFFF1F030008004A
:104DA000013810B511001A282FD802F0B3FC0E13E9
:104DB0000E1518181A1C1E1E1E1E201E1E1E221E38
:104DC00026261A1E1E2A1E2A2C0016221800FFF75D
:104DD000C1FF10BD0922F9E714220021F6E70C22D9
:104DE000F4E70A22F2E70D22F0E70822EEE70E22AE
:104DF000ECE70F221140073AE8E71F221140173A6B
:104E0000E4E71022E2E71022E7E7D1B21800FFF74B
:104E10006BFF0020DDE70000F8B506AC277807AC93
:104E2000267808AC25780024C460447404740475A2
:104E3000A14205D1064B074A2021074804F06EFA2B
:104E40004771C6710572016002718371F8BDC04679
:104E500030A50000AAA5000041A50000037D002B9D
:104E600004D14375837583610133037570477FB542
:104E7000C36802AD04000E0002916A608B4203D148
:104E8000028AAB889A4218D02000062229000C30F2
:104E900004F0AAFA206800F0EEFD6B79227AE1793D
:104EA00000932068002300F0BFFE206829793200BB
:104EB00000F0B2FD206800F0D4FD7FBD70B518266B
:104EC0000400FFF7CBFF3300082120790D4D434349
:104ED000EB18595600F080FB33000821A0794343BA
:104EE000EB18595600F078FB082160794643AD195C
:104EF000695600F071FB044B200006CBFFF7B7FFAB
:104F000070BDC04600A600005C02002007B5437DCE
:104F100000910192002B07D09A070AD5EFF3108376
:104F20005A425341837572B60099019AFFF79FFF69
:104F300007BDDB07F8D58369014A9BB29360F3E7AD
:104F400000180040437D002B05D09A0704D5837DCF
:104F5000002B00D062B67047DB07FCD58369024A9C
:104F60009BB2D360F7E7C0460018004010B50300BD
:104F7000032908D8080002F0CDFB070B0209002125
:104F8000186800F099FD10BD0121F9E70221F7E74B
:104F90000321F5E710B50068032900D8042100F0CB
:104FA00073FD10BD10B5006800F0A6FD10BD70B512
:104FB00006000C008D18AC4206D021783000FFF7B7
:104FC000F1FF20700134F6E770BD00000A4B0B4A78
:104FD0000B491A6000225A711A710A4B19600A496A
:104FE000DA6099801821997117395A741A741A75F0
:104FF000D9711A727047C0465C02002000093D005A
:10500000EC060020400200201617000010B50248F0
:1050100000F071FF10BDC046A004002010B502488A
:1050200000F069FF10BDC04664020020F7B50124FE
:105030000326154F1549380000F064FC1449154843
:1050400000F060FC1449154800F05CFC1449154858
:1050500000F058FC1449154800F054FC144D154953
:10506000280000F04FFC3900009623000194002234
:10507000114800F0D5FE0096290001941E231F223E
:105080000E4800F0CDFEF7BDDC060020000800420F
:10509000000C0042E006002000100042E406002060
:1050A00000140042E806002000180042EC06002030
:1050B000F0060020001C0042A00400206402002032
:1050C000FEE70000034B10B51B68002B00D098478B
:1050D00010BDC046F406002070B50F490F4CA14228
:1050E00004D100F08FF800F019FBFEE70C4D00230F
:1050F0008D42F6D0CA18E818A24205D3094B824265
:10510000EFD00949002204E0006804331060F1E7A1
:1051100004C38B42FCD3E4E700000020D000002051
:1051200058AC0000D0000020300D002010B500F079
:1051300066F8002801D100F057F810BD014B186047
:105140007047C046F4060020014B18687047C046FF
:10515000F8060020F7B51348012284461249134C83
:105160008E68636805689B0E1340019288686268C8
:10517000019F920E3A4067463F6893420ED1BD426E
:105180000CD186420AD35B19FA254868AD00861B0C
:1051900007486B437043000DC018FEBD3D0013006F
:1051A0000600E3E7F806002010E000E000ED00E074
:1051B0005555000070B5041E10D0FFF7CBFF050059
:1051C00000F01CF8FFF7C6FF054B401B9842F7D9CB
:1051D000FA23013C9B00ED18002CF3D170BDC046B2
:1051E000E70300007047000010B5034A136801335D
:1051F000136000F04BFB10BDF80600207047002044
:10520000704700001E2270B54648474943689343E3
:105210001C3A1343436008238C6923438B61434C3E
:10522000434B9C829C8A14439C82DC681442FCD0D1
:105230000124404A14701578254203D055786DB288
:10524000002DF8DB01249460547864B2002CFBDB61
:10525000394C5460547864B2002CFBDB8224E401A6
:105260005480547864B2002CFBDB02249C840E34FE
:10527000DD682542FCD0314CDC621024DD6825421B
:10528000FCD09D8C2E4C2C439C841024DD68254240
:10529000FCD002249D8C80262C439C844024DD6815
:1052A0003542FCD0DD682542F9D01024DD68254266
:1052B000FCD000249460547864B2002CFBDB214CB9
:1052C0005460547864B2002CFBDB1C6A1E4D2C40E9
:1052D00080251C621C6AAC431C62032393601B4B39
:1052E000536053785BB2002BFBDB0023FF240B726F
:1052F000174A4B728B72CB72164B1A60164B174AB9
:105300001B6811689A065B01C90E2340520F1202F6
:105310000B431343124A13858023426813434360AF
:1053200070BDC04600400041000400400C06000073
:1053300000080040000C004001050100B905FF7D98
:10534000040A000000070300FFFCFFFF0306010042
:10535000006CDC02140000202460800020608000CB
:1053600000400042FA21314B10B51868890002F064
:10537000DBF92F4B0138984256D82E492E4A486007
:10538000C020136A00061B021B0A03431362002499
:1053900007238C600B608021136A09061B021B0A1D
:1053A0000B431362FC22254B196A0A431A62FC2242
:1053B000196A92010A431A62A022196AD2020A43A8
:1053C0001A6220000021013400F076F8142CF8D184
:1053D0001B4B1C005A7852B2002AFBDB194A5A8038
:1053E000194B1A00597EC9090129FBD0E421C900D3
:1053F00099803F21D970537EDB09012BFBD0C0235C
:1054000000205B011361907000F024F863785BB2B8
:10541000002BFBDB0D4B0E4A6380D379DB09012B9C
:10542000FBD04123537010BDFEE7C046140000209E
:10543000FFFFFF0010E000E000ED00E0000400408E
:10544000000C00401E4000000040004221400000CF
:1054500000480042164A00B51300517EC9090129CF
:10546000FBD00138042816D81969124A0A400F21C6
:105470001A615A788A4302F04DF90308060B0300BB
:10548000110001220A435A7000BD11000322F9E7FE
:1054900011000222F6E7F02311691B050B430F21CF
:1054A000136153788B43190002230B435370EBE7CE
:1054B00000400042FFFFFFF0182330B51D0004003C
:1054C00045430820204A55192856013014D0032995
:1054D00012D808006343D156D31802F01BF90228F2
:1054E0000E1B5868CB010221184A9B181A1840322B
:1054F0001170012282405A6030BD5868CB010621EC
:10550000124A9B181A1840321170012282405A60C8
:105510009A61F1E75868CB0106210C4A9B181A18CA
:1055200040321170012282405A605A61E4E75868A3
:10553000CB010221054A9B181A1840321170012232
:1055400082409A60D8E7C04600A6000000440041AF
:105550001823F0B508245843114A13181C57013476
:105560001BD0012635005F688356BD400D4ADB0124
:105570009A18906805420BD10C00601E8441D21924
:105580004032107834400336A400B04320431070FA
:10559000044A9B18002901D15D61F0BD9D61FCE7C3
:1055A00000A6000000440041182310B5082443431E
:1055B00007490020CA181457013408D05B56054922
:1055C000DB015B18186A5368D8400123184010BDEE
:1055D00000A600000044004118224243F8B52C4EBA
:1055E0000300B218127A52B2140001320ED0481CD5
:1055F00000240C280AD802F08DF8071F1F1F1F1F58
:105600001F1F1F0B0B0B0B00012464422000F8BD71
:10561000092905D100211800FFF74EFF0024F5E706
:105620000A2901D10839F6E700240B29EED10A39FD
:105630001800FFF741FFE9E718225343F2185568B5
:1056400001202C00F356134ADB016E089B18C9B2E7
:1056500004409E19002C0DD00F24303632780901F9
:1056600022401143C9B25B19317040331A7810439C
:105670001870D3E732000F27303216785B19BE431B
:105680003143117040331A7810431870BEE7C0469A
:1056900000A6000000440041F7B5C31D019300239C
:1056A00006000D00041D009321780A22280000F056
:1056B000D7F82E210700280000F081F8009B3F1842
:1056C000DB190093019B01349C42EDD1F179280054
:1056D0000A2200F0C5F8009B1818FEBD024B0833E3
:1056E000036000234360704750AA000030B503AC4C
:1056F0002578044CC57108340460017142718371CE
:1057000030BDC04650AA000010B504000422043089
:1057100003F06AFE200010BD7047000010B5FFF7CF
:1057200021FE03F029FEFFF7F7FF0120FFF742FDFE
:10573000084C200001F0AAF9200001F061FAFCF702
:10574000F9FDFCF7FDFF044B002BFAD000E000BF91
:10575000F7E7C046640700200000000010B503F022
:105760002FFE10BD10B503F035FE10BDF7B50600D5
:105770000D000C008B180193019B671B9C4207D006
:10578000336821781B683000984701340028F3D132
:105790003800FEBD70B5040008000D0004F0C0F92B
:1057A0002368020029005B682000984770BD10B58F
:1057B0000B1E02D0FFF7EEFF0300180010BD10B55E
:1057C00003681B68984710BD10B50249FFF7E2FF58
:1057D00010BDC0465CAA000070B50400FFF7E7FFEB
:1057E00005002000FFF7F0FF401970BD70B5040000
:1057F000FFF7DDFF05002000FFF7E6FF401970BD51
:10580000F0B58BB06B461500002205330600DA7741
:105810000800012D00D80A2509AC290002F00AF879
:10582000CAB2130037330700DBB2092902D81300CC
:105830003033DBB2013C2370002FEED12100300069
:10584000FFF7B5FF0BB0F0BD10B5002A04D1036817
:10585000C9B21B68984710BDD2B2FFF7D1FFFAE773
:1058600010B5FFF7F1FF10BD10B50400FFF7BAFC4B
:10587000014B1C6010BDC046180000200122024BE5
:1058800052421A607047C04618000020164A10B5F0
:105890001368591C26D0013B1360002B22D172B62D
:1058A000124B134A0433934213D9124A01211000B8
:1058B000147D0C42FCD02021148BFF319B085B002F
:1058C00021431183D3610C4B13800123027D1A42C3
:1058D000FCD0BFF34F8F094B094ADA60BFF34F8FFB
:1058E000C046FDE710BDC0461800002000200000A3
:1058F000030200000040004102A5FFFF00ED00E0B0
:105900000400FA05016070479446F0B59E1E721EB1
:1059100096416246056892072F6836063A4332433D
:105920002A60072505AC24780068A401294021439A
:1059300042680024022B00D05C03114321434160E4
:10594000F0BD30B5C0250368AD031C6812052A40C0
:105950002243C0240904A4022140114319600368B2
:105960005A6814435C6030BD0123026811680B4320
:10597000136003681A68D207FCD4DA69D207F9D435
:1059800070470223026811680B4313600268D369F1
:105990009B07FCD4704703681A7ED20702D41A7E94
:1059A0009207FCD57047002203685A83704703684A
:1059B000187E4007C00F70470368187EC009704703
:1059C000802302685B42117E0B43137670470368A5
:1059D000588B8007C00F704702230268518B0B431E
:1059E000538370470368187EC007C00F7047036871
:1059F000188DC0B2704703681A7ED207FCD589B2F1
:105A0000012019857047012203689A7570470122A9
:105A100003681A757047000070B5012604684B08CA
:105A200033403140256809075B070B432B43236054
:105A300004685100034801F077FE0138C0B22073BA
:105A400070BDC046006CDC020123026811680B4384
:105A5000136003681A68D207FCD4DA69D207F9D454
:105A600070470223026811680B4313600268D36910
:105A70009B07FCD470470368DA699207FCD40221C3
:105A80001A688A431A60704770B504000E1E10D061
:105A9000FFF7F1FF3100074801F0D0FE4100054853
:105AA00001F042FE25680138C0B228732000FFF7DC
:105AB000D8FF70BD006CDC0270B5012604000D003B
:105AC000F14035400E40FFF7D6FF2368084A1968B9
:105AD00076071140314319602268064913682D0783
:105AE0000B402B4313602000FFF7BBFF70BDC04687
:105AF000FFFFFFDFFFFFFFEF0268936A5B0A5B02B5
:105B00001943916203681A7E5207FCD5986AC0B2A5
:105B1000704700000368214A30B593422FD0204AD5
:105B200093422FD01F4A93422FD01F4A93422FD027
:105B30001E4A93422FD01E4A93421FD10E23192290
:105B40000121032599401B48C024016099082B407E
:105B5000AB40FC359D4089000918A4000859A843B2
:105B6000C0259D402B0003430B518023DB011A43CA
:105B7000114B5A805A7852B2002AFBDB30BD092300
:105B80001422DDE70A231522DAE70B231622D7E7D2
:105B90000C231722D4E70D231822D1E70008004276
:105BA000000C0042001000420014004200180042A5
:105BB000001C004200E100E0000C0040F8B50400C9
:105BC0000F0016001D00FFF7A5FF2000FFF7CCFE19
:105BD0001C21BB000B4071072268090C0B431360AA
:105BE000842322689375012F1AD11021012E00D031
:105BF00008390C4B69431868C00001F095FD072275
:105C0000216802408B895203DB04DB0C13438B8138
:105C1000226803049089DB0C400B400318439081F9
:105C2000F8BDC04614000020F7B50600019308AB8C
:105C30001F780D001400FFF707FF3000FFF76AFF21
:105C4000C022240592031440BA070C2717433C4393
:105C5000C0270722BF022D0433683D4025431D6045
:105C6000019B316813401A0080239B0213434B6051
:105C7000F7BD01207047000010B50368014A1B6A98
:105C8000984710BD130400000300FC33D9699A69DA
:105C9000914203D0DB69C018007D7047012040426B
:105CA000FBE710B504000069FFF75EFE2200002349
:105CB000FC329361D36186229200A4186360A360D2
:105CC00010BDF02001403039484248417047F02370
:105CD0001B011940802306209B0099420AD0013302
:105CE000FF330130994205D0802302385B0099428E
:105CF00000D0002070470F2001400020012903D070
:105D00000239481E8141481C704700008923F0B5C4
:105D1000182685B002919B000400C05C3300082166
:105D20004343324D1700EB185956FFF755FC304BE3
:105D30000821E05C33004343EB185956FFF74CFC55
:105D40002C4BE25C0393022A09D11133E05CFF285B
:105D500005D008214643AE197156FFF73DFC8A264F
:105D6000B600A05DFF2819D00121FFF7A5FB18227E
:105D7000A35D21495A43AB56AD18DB0158188B215E
:105D8000890060501D4901225B188C2189006350F5
:105D900069688A408D21890062501A600122029B45
:105DA00011002069FFF70AFF39002000FFF78FFF7D
:105DB000390005002000FFF79EFF39000600200093
:105DC000FFF77FFF33000090290020690122FFF7D1
:105DD0009BFD0B4B2069E25C039BE15CFFF7B1FD8F
:105DE0002069FFF7CEFD05B0F0BDC04600A600005B
:105DF000250200002702000018440041144400411D
:105E000026020000802210B504005200002103F099
:105E1000F4FA23000022FC335A6020009A6010BD7F
:105E2000F7B51D0008AB1B780400009309AB1B7885
:105E30001600019300234360FA239B008360114BFB
:105E40000F00083303601430FFF7DCFF20001D3023
:105E5000FF30FFF7D7FF89236A469B002761E6548E
:105E6000094B1278E554094B2000E2546A46084B6E
:105E70001279E2548A22293BFF3B9200A35410324C
:105E8000A354FEBD60AA0000250200002602000007
:105E9000270200000300FC3358689B68C01A01D534
:105EA0000130FF30704710B5040020001D30FF3076
:105EB000FFF7F0FF0028F8D12069FFF76CFD10BD57
:105EC00010B51430FFF7E6FF10BD0300FC3359682E
:105ED0009A68914204DB5A689868801AFF307047CC
:105EE00098685B68C01A0138F9E710B51D30FF30BB
:105EF000FFF7EBFF10BD10B504000069FFF767FD69
:105F0000002805D02069FFF772FD2069FFF764FDC6
:105F10002069FFF74CFD002820D02069FFF767FDBE
:105F20002200FC329369D1690133DBB28B4203D08A
:105F300091696118087593618A239B00E35CFF2BCC
:105F40000CD020001430FFF7C0FF092806DC8B239B
:105F50008D229B009200E358A2581A602069FFF737
:105F600041FD00281AD020001D30FF30FFF792FFBE
:105F7000002822D086239B00E31899685A68914232
:105F800018D08E219A684900A218515C9A68013293
:105F9000D2B29A60C9B22069FFF72DFD2069FFF7E0
:105FA0000BFD002805D02069FFF70AFD2069FFF7E7
:105FB000FAFC10BD01214942ECE72069FFF727FDFB
:105FC000ECE7000070B5040000690D00FFF70AFD62
:105FD00000283ED1FF2686239B00E3185A68996863
:105FE000013232408A4223D1EFF31083DB0710D411
:105FF0001E4B5B68DB05DB0DEDD0103B5BB2002B6D
:1060000010DA0F221340083B9B08194A9B009B188B
:106010001B682069FFF7E6FC0028DCD02000FFF7B2
:106020006AFFD8E79B08C033124A9B009B58F0E7F1
:106030005A68013216409A68964205D08E215A68F5
:106040004900A21855545E602069FFF7DCFC01206E
:1060500070BD20001D30FF30FFF71CFF0028B9D1B4
:1060600029002069FFF7C7FCF1E7C04600ED00E01A
:106070001CED00E000E100E0030070B5FC33D969DD
:106080009A69040091421AD0DA698218157DDA699A
:106090000132D2B2DA618A239B00E35CFF2B0CD081
:1060A00020001430FFF711FF0A2806DD8C238D2213
:1060B0009B009200E358A2581A60280070BD012589
:1060C0006D42E8E70020704770B50F26CB1D0139FF
:1060D00002003240D5B22C0000093034092A00DD1C
:1060E00007341C70013B8B42F2D170BD10B50C001F
:1060F0000B4B1868FFF7E8FF21000A4B08311868BE
:10610000FFF7E2FF2100084B10311868FFF7DCFFB2
:106110002100064B18311868FFF7D6FF202010BD6C
:106120000CA0800040A0800044A0800048A0800017
:1061300008B4024B9C46103808BC6047ED60000074
:1061400070473F20704713B56B460268D97107331B
:10615000546819000122A04716BD000070B50A2638
:106160000B7892B06E44023305000B703C22002184
:10617000300003F042F9394801AC06903848242138
:106180000790062020776846364AA1742281364A55
:10619000364BA281FD3AFF3A8018C1776846233911
:1061A0000630C17768460730C17702A8C17707205B
:1061B000F277032608316944C87703A9CE77102106
:1061C0002B366E443170092621851F3169440E70CB
:1061D0000CA9053E0E7033212380022369440B7005
:1061E00006360DA90E7022493536A1863B216E4434
:1061F000307010A86274E27702703D3269446A44DC
:106200000B70137040210022E37023716371A3733C
:1062100041336B44218719705A702B7DC039A370AC
:10622000A37263770133DBB2A3776A7D0B200D0085
:1062300068441543C5773120684403703A23501CE5
:106240006B441870412302320A436B441A702100D8
:106250004222084800F082FF12B070BD10010424F1
:10626000020605240904000001020000080B0000DA
:10627000070500006407002008B4024B9C46103854
:1062800008BC60475D61000070B5027D0B790C00B1
:1062900000259A420BD10B784E78A12B09D1212EE3
:1062A00005D107221F49204800F058FF013528007A
:1062B00070BD212BFBD1202E2BD1072219491A4862
:1062C00000F082FE174B1A785978090211439A7828
:1062D00012041143DA7812060A439621C9008A4251
:1062E0001DD1DB79DB071AD4FA20FFF7BDFA0021B4
:1062F0000D4801F03FF80125232ED8D1E378A2788C
:106300001B021343094A00210748136001F032F8C9
:10631000CDE7222EEFD18A78024BDA71D2E7FFF770
:10632000ADFAE4E720000020640700201C000020F4
:1063300008B4024B9C46103808BC604789620000D4
:1063400010B5417D006A013100F068FD034B1B6808
:1063500001335A1E9341181810BDC0462800002072
:1063600010B5417D006A023100F06EFD10BD10B520
:10637000417D006A023100F035FD10BD70B50D00A1
:10638000417D0400130002312A00006A00F030FE53
:10639000002801D10123636070BD000010B5054CD9
:1063A00023685A1C04D103685B6998470300206086
:1063B000180010BD28000020074A0300106810B51F
:1063C000411C03D001235B42136010BD597D186A44
:1063D000013100F0BDFDF8E72800002070470020E3
:1063E00070470000FA239B0010B583600F4B00221A
:1063F000C3820300283383610D4B04004260C261F5
:106400001800443323610830631D21622060DA776D
:106410008323A362813BE3628033236300F0AEF801
:106420002100103100F07EF8200010BD03020000B2
:1064300094AA0000022110B5094B1A68437D5B0144
:10644000D318FF339C7A21439972437D0133DBB229
:106450005B01D3180122FF33997A0A439A7210BD67
:106460001C0C00207047000010B502490248FFF7DD
:10647000B9FF10BD64070020FC06002070B50E00B7
:1064800000254468002C0BD0236831005B68200095
:106490009847002802DB2D18E468F3E701256D42D8
:1064A000280070BD70B50D004468002C08D023682A
:1064B00029009B6820009847002802D1E468F4E78F
:1064C000200070BD70B50D0000264468002C09D076
:1064D0002368290020001B69984736182D18F6B24A
:1064E000E468F3E730002C7070BD70B50D004468AF
:1064F000002C08D0236829001B682000984700283A
:1065000002D1E468F4E7200070BD70B50D00446866
:10651000002C06D023682000DB6829009847E46837
:10652000F6E770BDF0B58C79457803002A19002094
:10653000072A1FDC5A68824216D159601A78C87936
:106540000A7112184D711A7000220B4DD0B284429C
:106550000FD98F6858789600F75986000130775127
:1065600001325870F2E70200D0680028FBD1D160F8
:10657000E4E70120F0BDC0463C0700200121064AA7
:1065800010B5136805480B4004D1802464000480D2
:106590004360116010BDC046300700203407002062
:1065A000704710B50400FFF7DDF8200010BD0000B3
:1065B000F0B5822919D1C3B2294D5A01AA1891699F
:1065C000284C80010C40C021890521439161264956
:1065D000083340187021506128685B011A5C8A43B7
:1065E000110030220A431A54F0BD0029FCD1C02604
:1065F000C1B21B4C4B01E3189A681A4DB6052A40EC
:1066000032439A60194A800182185A600A000727AB
:10661000246808325201115DB9430F00012139434A
:1066200011559F6910493D4040182E439E615861A5
:106630007020115D814308001021014311559968B4
:106640000B48A218084080214903014399609968CA
:10665000890B89039960402311790B431371C3E7B8
:106660001C0C0020FFFFFF8F900700205009002026
:10667000FF3F00F0EFF3108303600123436072B625
:1066800070470368002B02D162B6BFF36F8F70476B
:10669000F7B50600FC36B3690400002B18D1B22709
:1066A0007F00C55D6846FFF7E5FF019BEDB2013B4A
:1066B00002D3E55DEDB2FAE768460193FFF7E1FF2B
:1066C000002D01D10020FEBD706E336EC01AFAE7B6
:1066D0006846FFF7CFFFD8220025019B5200013BFF
:1066E00002D3A55CEDB2FAE768460193FFF7C9FF54
:1066F000002DE7D0D6235B00E058043BE358E5E7E4
:1067000010B54468FC3043690B48DBB25A01A2184B
:1067100091680833084080214903014391609168E2
:106720005B01890B890391602268D3184022197993
:106730000A431A7110BDC046FF3F00F0F7B50500CF
:10674000FC356B694268DBB219000400083110683F
:1067500049014118C979C90711D55B01D21893685D
:106760009B049B0C0CD12000FFF7CAFF63681A68DA
:106770006B69DBB208335B01D3187F22DA71F7BD96
:10678000E969002923D16B66230001266933FF33B1
:10679000EE6168465360B227FFF76CFF7F00B221BD
:1067A000019BFF31013B5A1C38D0D822E6555200DC
:1067B000A25C581ED2B26254625C8446002A04D1A4
:1067C00020000193FFF79CFFE9E76346EBE7D62142
:1067D000490063500023EB6123001D33FF335360F6
:1067E0006846D826FFF746FF01277600B221019BB5
:1067F000FF31013B5A1C11D0B222A7555200A25CB6
:10680000581ED2B26254625C8446002A04D1200031
:106810000193FFF775FFE9E76346EBE768460193ED
:10682000FFF72FFFA2E7F7B5060068463400FFF731
:1068300021FF0027FF22019BFC34013B0DD3E068C0
:106840002169884204DBE7682069D71B3F18F4E719
:106850002769E1687F1A013FEFE768460193FFF778
:1068600010FFA3696846002B52D1FFF703FFB22146
:10687000019B4900013B5A1C0CD0755C5A1EEDB2BD
:10688000002D05D168460193FFF7FBFE2800FEBDF1
:106890001300F0E7684601930025FFF7F2FEFF22A0
:1068A000236EBD4214D0616E994211D9591CF31860
:1068B0002166FF33587FE36821690133C0B213407A
:1068C0008B4203D0E16871180872E3600135E7E795
:1068D000626E9A42DAD1002323660133A3616846CF
:1068E000B224FFF7C7FE6400B2220021019BFF32F1
:1068F000013B581CC6D03155B05C5F1E002805D046
:10690000B15430000193FFF7FBFEEDE73B00F0E7E9
:10691000FFF7B0FED821019B4900013B5A1C06D06D
:10692000755C5A1EEDB2002DACD01300F6E7684638
:106930000193FFF7A6FED623D4225B0000259C46D8
:106940005200B358BD4203D061467158994220D8D5
:106950006246B2589A4299D1D42200235200B350D1
:106960006846A361D824FFF785FE6400B2220021A7
:10697000019BFF32013B581C00D183E73155B05CCD
:106980005F1E002819D0B15430000193FFF7B8FE04
:10699000ECE7591CB150FF21F3186933FF33187825
:1069A000E368C0B201330B4021698B4203D0E16838
:1069B00071180872E3600135C3E73B00DBE710B5EF
:1069C0000400FFF730FF2300FC331969DA689142B5
:1069D00003D01B69E418207A10BD01204042FBE778
:1069E00010B50400FC34FFF71EFFE0682369C01AED
:1069F00001D50130FF3010BDF0B585B00192009196
:106A00000500FFF710FF02A8FFF734FE0120002465
:106A1000FF26039B40425A1E531C1FD02B00FC3301
:106A200001998C4218D2D9681F69C91B01D501315F
:106A3000FF31002910D01969DF688C460100BC4580
:106A400006D019691F69691801373740097A1F6133
:106A5000009F39550134E3E7013ADDE702A80392CC
:106A6000FFF70FFE200005B0F0BD37B56B46DC1D0B
:106A700000230D002370FFF781FD2100FFF7FEFCCE
:106A80002B681818286020783EBD0000F7B5002458
:106A90004B4B012105001A201C70FEF70DFD012152
:106AA0001A20FEF755FD474B012119201C70FEF7F7
:106AB00003FD01211920FEF74BFD2023424A0F2040
:106AC000D1690B43D361012240490B7813430B700A
:106AD0003F4B19788143197006211C7821431970A6
:106AE0003C490C7822430A701A7802401A706022DE
:106AF00019780A431A70384B384A5A805F78FF0970
:106B0000FCD13748FEF71AFB0123364C364E22687B
:106B1000300011780B43137080223900520002F0CC
:106B20006CFC22689378DB07FCD456621F262F4B3F
:106B30001B68590B980C9B01314030405B0FB142F0
:106B400000D105211F2800D10238072B00D1043BBA
:106B500031408901178D0191254930400F4001993D
:106B600039431185118D0700B14308003843108562
:106B7000118D18031F4B0B407F210343138513789E
:106B8000C1200B40137004232268800011780B434E
:106B90000C211370226813898B43174913810B58FA
:106BA0001B021B0A0B5080230B6011787E3B0B43AA
:106BB0001370012300212B701048FFF753FCF7BD21
:106BC000850700208407002000040040584400414D
:106BD0003C44004159440041000C00400640000084
:106BE000CD7500001C0C0020200C002024608000CB
:106BF0003FF8FFFFFF8FFFFF00E100E0FC060020F1
:106C00000078002810D00121084B1B681A898A439C
:106C10001A810822198B0A431A830422198B0A430A
:106C20001A830022024B1A607047C0461C0C0020D9
:106C3000140C002010B50F4A93699B0B9B039361C2
:106C400013680222FF331A729879823A02439A71CA
:106C50001A7A9207FCD57F24074A2140937A0800CC
:106C6000A3431900802301439172917A5B420B4345
:106C7000937210BD1C0C00200050004110B50C0098
:106C8000FFF77CFC2100FFF730FC002804D1034A09
:106C900093699B0B9B03936110BDC0461C0C0020A5
:106CA000F7B50D00832A19D1CBB2404C5A01A21876
:106CB00091693F48AD010840C021890501439161B8
:106CC0003C4920686D187021083355615B011A5CDE
:106CD0008A43110040220A431A54F7BD022A5FD1A9
:106CE000354B8A00D058002802D003685B6998476A
:106CF000DA204000FEF732FD802204002B4E2F4B9D
:106D00004660036052000021083002F076FB22004A
:106D1000B2210023FC324900D36055611361136630
:106D20009361D361536663544431635004316350BB
:106D300004316354B221FF316354FF202B00034020
:106D40005901019371188F68194BAD003B40C02762
:106D5000BF051F438F600727019B366808335B011F
:106D6000995DB9430F0003213943995523005169B7
:106D7000666801401D334901FF3371184B60636839
:106D800052691B68024052019B1801221B18997A14
:106D900020000A439A72FFF7B3FC074BEC509CE7C4
:106DA00011002800FFF704FC97E7C0461C0C0020E8
:106DB000FFFFFF8F9007002068070020F4AA000063
:106DC00070B505000124064BA200D258002A06D057
:106DD000210028000134FFF763FF0A2CF3D170BDB6
:106DE0003C0700200B4BCAB20B488901C91853015C
:106DF000C318596199690832890B8903996103683D
:106E000052019A180223D3715179823B0B4353717B
:106E10007047C046900700201C0C0020084B8A00D9
:106E2000D05810B5002803D003689B68984710BD60
:106E3000C9B2044B4901591888688004800CF6E7F0
:106E4000680700201C0C002010B50C00FFF7E6FFBF
:106E500000280CD0064BE4B21B68083464011C19EE
:106E6000802362795B42134363710223E37110BD97
:106E70001C0C0020F0B51C00304B85B01B680700CF
:106E80000D000292002B55D02D4E3178C9B2002949
:106E900002D11920FEF75CFB64233370294BAA0052
:106EA000D058002808D0036822005B6802999847F0
:106EB0000400200005B0F0BD29003800FFF7AEFF48
:106EC000844204D929003800FFF7A8FF04000121FB
:106ED000EBB21D4E03935B010193F21893689B0B79
:106EE0009B039360019A336802989B18FF335A7A88
:106EF0000A435A72154BA901C918220002F074FA0C
:106F0000002CD6D029003800FFF788FF0028D0D108
:106F10004021039B326808335B01D3181879014381
:106F200019710121D971019BD318FF339A7A0A4351
:106F30009A72BEE701246442BBE7C046140C0020ED
:106F400084070020680700201C0C00205009002046
:106F500013B56B46DC1D22000123FFF78BFF0128D0
:106F600001D1207816BD01204042FBE770B5CBB2BD
:106F7000124A13485C01890189180219516091680D
:106F8000104D08330D40802149032943402591606D
:106F90009168890B8903916001685A018A181679F2
:106FA0003543157195796D06FCD55B01C918CB7910
:106FB000DB07FCD500198068C0B270BD5009002005
:106FC0001C0C0020FF3F00F070B50D0000211400E4
:106FD000FFF7CCFFA04200D9200000230349A342C1
:106FE00003D0CA5CEA540133F9E770BD50090020B0
:106FF000F0B51E003F4B85B01B680F000192002BBF
:107000003FD08023DB019E423BD83B4C2178C9B264
:10701000002902D11A20FEF79BFA64230025237071
:10702000364BBA01D3180293002E2CD0344B1B6878
:107030000393FF233B401C0000930834039B64012F
:107040001C19A379DB0921D02E4B2F49186800F0B9
:107050006BFB2E4B1721584300F066FB2C4BE2795B
:10706000920713D4DA5D002A01D10138F7D2012248
:10707000DA55009B5A01224B9B189A69920B920396
:107080009A6101256D42280005B0F0BD0022204B19
:107090003400DA553F2E09D9009B40245A01184B81
:1070A0009B188022996912060A439A61220001996D
:1070B000029802F099F9009BA1045A01104B890C27
:1070C0009B18029A2D195A619A69361B920B9203EA
:1070D0000A439A61009B039A08335B01D31802228A
:1070E000DA715979823A0A435A71019B1B1901934B
:1070F0009AE7C046140C0020850700209007002066
:107100001C0C00201400002040420F0070110100F0
:107110008707002070B50D001C000D4BAE01F6185E
:1071200011003000220002F05FF9EDB209496D0153
:107130004D196E61AB69084A20001340AB61AB6921
:10714000A2049B0B920C9B031343AB6170BDC04622
:10715000900700201C0C0020FF3F00F0F7B5104BFB
:1071600001901B780F001500002B0CD10D4B160061
:107170001C78002C09D00C4E0C4834882018641957
:1071800002F032F934802800FEBD002EFBD03A19FF
:10719000330000210198FFF7BDFF2418361AF4E7E9
:1071A000100B0020110C0020120C0020110B0020ED
:1071B000F8B50F0016000024012A26D9100002F0AD
:1071C000FFF80500380002F0ABFC03230222013077
:1071D000400028706B7096420DD9397800290AD08A
:1071E000531CDBB20137A9549E4203D00232EC5447
:1071F000D2B2F0E7320029000548FFF7AFFF441E86
:10720000A041C4B2280002F0E5F82000F8BDC04655
:1072100064070020F0B50024012685B0184B0F004C
:1072200069461E7005000094FFF71FFC154B01A96D
:107230000B806A3BFF3BCB715A330B72009B8C7106
:1072400009334B800E4B4E7108711C703A00092FA8
:107250000FD00D4F09223E700C4E28000094348050
:10726000FFF77CFF69462800FFF7FFFB32880849DB
:107270003C702800FFF772FF012005B0F0BDC0464A
:10728000100B002009020000110C0020120C00203D
:10729000110B002070B5CE7892B005000C00022EC4
:1072A0000BD18B79C9792E4809021943FFF7B2FF38
:1072B000411E8841C0B212B070BDFFF75FF92100D6
:1072C000FFF7F0F8002803D0C117081AC00FF2E743
:1072D000012E0ED1E279A37912021A432149112A13
:1072E0003CD8D2B2002A39D02800FFF737FF01205E
:1072F000E1E7032EDFD1A378002B28D0022B08D1A1
:10730000E279A379120218491A432800FFF750FFC7
:10731000D1E7012B05D1E279A37912021A4313496F
:10732000F3E7032BC7D10100412201A802F065F861
:10733000FFF724F901A9FFF7C5F8002805D0E27985
:10734000A37912021A4301A9DFE70378FFDEE2798D
:10735000A37912021A430649032AC2D90A78C3E75D
:10736000640700202EAB000010AB000022AB000031
:107370001EAB0000CBB204495B01C9188B699B0BA3
:107380009B038B617047C0461C0C002037B505007D
:1073900048780C000B2810D800F0BCF9061B0F2B06
:1073A0000F404561494C5A5D097801AA002906D170
:1073B000022311802800FFF7ADFE01203EBD00230F
:1073C0001380284B1B78012B00D11370022300215E
:1073D000F0E78A780023012A03D101AA1380224B07
:1073E000F0E7204A1370214A93699B0B9B0393613A
:1073F000E3E78C78012C06D100211B4B01AA1C70FD
:1074000011702300D6E70120002CD7D1154B174A65
:10741000187093699B0B9B039361CFE789782800D1
:10742000FFF708FCC9E72800FFF734FFC6E7012390
:107430000F4ACCE70B780020DB06BFD12800FFF70E
:10744000BFFCA2780A4B0B481A60FEF7F3FFCAE7AD
:107450000123094ABBE78A78074B1A60C3E700207B
:10746000ACE7C046860700208E0700201C0C0020D9
:10747000140C0020FC060020180C00204B4BF7B524
:107480001E780500002E00D07EE0494C23689A8BC0
:1074900012070DD5082231009A833000FFF788F8D3
:1074A00010222368FF33997A0A439A72414B1E6077
:1074B00023689A8B52071FD504229A833E4A137879
:1074C000002B0AD01378013BDBB213701378002B2A
:1074D00003D101211A20FEF73BF8384A1378002B1C
:1074E0000AD01378013BDBB213701378002B03D161
:1074F00001211920FEF72CF82368FF331A7A92062F
:1075000003D52022597A0A435A721A7AD20623D511
:10751000694608002A4AC0CAC0C0A268920B9203FA
:10752000A2604022587902435A7160230A782800E9
:107530001A422AD1FFF72AFF2368FF33002827D0F9
:107540008022997952420A439A711A7A520603D5D7
:107550004022597A0A435A727F2601252368FF3355
:107560001E722F00236808377F01DB19DB79002B9F
:1075700007D0144BAA00D05800280DD003681B6810
:1075800098470135082DECD1F7BDFFF777FBD3E71E
:1075900020210D4A9171D8E7FEF7F0FF2900FEF790
:1075A000B4FF2368DF19FE71EBE7C046110C002021
:1075B0001C0C0020140C00208507002084070020EC
:1075C0005009002068070020FF50004110B5024814
:1075D000FFF754FF10BDC04664070020014B024A6C
:1075E0001A6070471C0C002000500041434AF0B55F
:1075F0004F4691464B005B0D99444646D6464A4657
:10760000C0B505000C000E0088460700132A25DCD3
:10761000002A56DB3A4B13419A460B005246134060
:10762000034316D0374A384B00F070FB002200238A
:1076300000F01AFA00280AD0002C04DD80234A4604
:107640005B03134198444646534600279E43380047
:1076500031001CBC90469946A246F0BD332A08DD95
:107660008023DB009945F4D102000B0000F04EFBB3
:10767000EFE7264A9446012263445242DA4092469A
:107680000242E6D01F4A204B00F040FB00220023BC
:1076900000F0EAF90028DAD0002C0EDD4B46142B5E
:1076A00022D034234A4601249B1A9C406519BD42CE
:1076B00022D201239C462F00E044534646469F4376
:1076C000C5E7104A104B00F021FB0022002300F018
:1076D000CBF90028BBD0002C0ADB2C430027002666
:1076E000002CB4D00A4EB2E7133B9C46E044E4E7DA
:1076F000802600273606AAE72F00DEE701FCFFFF01
:10770000FFFF0F009C7500883CE4377EEDFBFFFF18
:107710000000F03F02B4714649084900095C490085
:107720008E4402BC7047C046002243088B4274D38B
:1077300003098B425FD3030A8B4244D3030B8B4272
:1077400028D3030C8B420DD3FF22090212BA030C7B
:107750008B4202D31212090265D0030B8B4219D35C
:1077600000E0090AC30B8B4201D3CB03C01A52417C
:10777000830B8B4201D38B03C01A5241430B8B42C4
:1077800001D34B03C01A5241030B8B4201D30B03AD
:10779000C01A5241C30A8B4201D3CB02C01A5241D4
:1077A000830A8B4201D38B02C01A5241430A8B4297
:1077B00001D34B02C01A5241030A8B4201D30B0280
:1077C000C01A5241CDD2C3098B4201D3CB01C01A9A
:1077D000524183098B4201D38B01C01A52414309A4
:1077E0008B4201D34B01C01A524103098B4201D392
:1077F0000B01C01A5241C3088B4201D3CB00C01AFF
:10780000524183088B4201D38B00C01A5241430876
:107810008B4201D34B00C01A5241411A00D201469B
:10782000524110467047FFE701B5002000F0F0F824
:1078300002BDC0460029F7D076E7704703460B43E8
:107840007FD4002243088B4274D303098B425FD359
:10785000030A8B4244D3030B8B4228D3030C8B4285
:107860000DD3FF22090212BA030C8B4202D312126B
:10787000090265D0030B8B4219D300E0090AC30B40
:107880008B4201D3CB03C01A5241830B8B4201D3ED
:107890008B03C01A5241430B8B4201D34B03C01AD6
:1078A0005241030B8B4201D30B03C01A5241C30A4E
:1078B0008B4201D3CB02C01A5241830A8B4201D3BF
:1078C0008B02C01A5241430A8B4201D34B02C01AA9
:1078D0005241030A8B4201D30B02C01A5241CDD24E
:1078E000C3098B4201D3CB01C01A524183098B4299
:1078F00001D38B01C01A524143098B4201D34B0182
:10790000C01A524103098B4201D30B01C01A5241E4
:10791000C3088B4201D3CB00C01A524183088B426B
:1079200001D38B00C01A524143088B4201D34B0054
:10793000C01A5241411A00D20146524110467047C6
:107940005DE0CA0F00D04942031000D340425340CB
:1079500000229C4603098B422DD3030A8B4212D38B
:10796000FC22890112BA030A8B420CD389019211BD
:107970008B4208D3890192118B4204D389013AD0FA
:10798000921100E08909C3098B4201D3CB01C01ACF
:10799000524183098B4201D38B01C01A52414309E2
:1079A0008B4201D34B01C01A524103098B4201D3D0
:1079B0000B01C01A5241C3088B4201D3CB00C01A3D
:1079C000524183088B4201D38B00C01A5241D9D255
:1079D00043088B4201D34B00C01A5241411A00D2D6
:1079E0000146634652415B10104601D34042002BD2
:1079F00000D54942704763465B1000D3404201B551
:107A0000002000F005F802BD0029F8D016E7704705
:107A10007047C0468446101C62468C46191C63465B
:107A200000E0C0461FB500F02DFD002801D4002164
:107A3000C8421FBD10B500F085FC4042013010BDAA
:107A400010B500F01FFD002801DB002010BD012053
:107A500010BDC04610B500F015FD002801DD002066
:107A600010BD012010BDC04610B500F0A7FC0028D5
:107A700001DC002010BD012010BDC04610B500F093
:107A80009DFC002801DA002010BD012010BDC04679
:107A90008446081C6146FFE71FB500F0C7F80028C0
:107AA00001D40021C8421FBD10B500F049F8404282
:107AB000013010BD10B500F0B9F8002801DB00203E
:107AC00010BD012010BDC04610B500F0AFF8002871
:107AD00001DD002010BD012010BDC04610B500F032
